{
  "_format": "hh-sol-artifact-1",
  "contractName": "TokenizedBallot",
  "sourceName": "contracts/TokenizedBallot.sol",
  "abi": [
    {
      "inputs": [
        {
          "internalType": "bytes32[]",
          "name": "proposalNames",
          "type": "bytes32[]"
        },
        {
          "internalType": "address",
          "name": "_tokenContract",
          "type": "address"
        }
      ],
      "stateMutability": "nonpayable",
      "type": "constructor"
    },
    {
      "inputs": [
        {
          "internalType": "address",
          "name": "voter",
          "type": "address"
        }
      ],
      "name": "getVotePower",
      "outputs": [
        {
          "internalType": "uint256",
          "name": "votePower_",
          "type": "uint256"
        }
      ],
      "stateMutability": "view",
      "type": "function"
    },
    {
      "inputs": [
        {
          "internalType": "address",
          "name": "voter",
          "type": "address"
        }
      ],
      "name": "getVotes",
      "outputs": [
        {
          "internalType": "uint256",
          "name": "votes",
          "type": "uint256"
        }
      ],
      "stateMutability": "view",
      "type": "function"
    },
    {
      "inputs": [
        {
          "internalType": "uint256",
          "name": "",
          "type": "uint256"
        }
      ],
      "name": "proposals",
      "outputs": [
        {
          "internalType": "bytes32",
          "name": "name",
          "type": "bytes32"
        },
        {
          "internalType": "uint256",
          "name": "voteCount",
          "type": "uint256"
        }
      ],
      "stateMutability": "view",
      "type": "function"
    },
    {
      "inputs": [
        {
          "internalType": "address",
          "name": "",
          "type": "address"
        }
      ],
      "name": "spentVotePower",
      "outputs": [
        {
          "internalType": "uint256",
          "name": "",
          "type": "uint256"
        }
      ],
      "stateMutability": "view",
      "type": "function"
    },
    {
      "inputs": [],
      "name": "targetBlockNumber",
      "outputs": [
        {
          "internalType": "uint256",
          "name": "",
          "type": "uint256"
        }
      ],
      "stateMutability": "view",
      "type": "function"
    },
    {
      "inputs": [],
      "name": "tokenContract",
      "outputs": [
        {
          "internalType": "contract IMyToken",
          "name": "",
          "type": "address"
        }
      ],
      "stateMutability": "view",
      "type": "function"
    },
    {
      "inputs": [
        {
          "internalType": "uint256",
          "name": "proposal",
          "type": "uint256"
        },
        {
          "internalType": "uint256",
          "name": "amount",
          "type": "uint256"
        }
      ],
      "name": "vote",
      "outputs": [],
      "stateMutability": "nonpayable",
      "type": "function"
    },
    {
      "inputs": [],
      "name": "winnerName",
      "outputs": [
        {
          "internalType": "bytes32",
          "name": "winnerName_",
          "type": "bytes32"
        }
      ],
      "stateMutability": "view",
      "type": "function"
    },
    {
      "inputs": [],
      "name": "winningProposal",
      "outputs": [
        {
          "internalType": "uint256",
          "name": "winningProposal_",
          "type": "uint256"
        }
      ],
      "stateMutability": "view",
      "type": "function"
    }
  ],
  "bytecode": "0x60806040523480156200001157600080fd5b5060405162000ce638038062000ce6833981810160405281019062000037919062000338565b806000806101000a81548173ffffffffffffffffffffffffffffffffffffffff021916908373ffffffffffffffffffffffffffffffffffffffff16021790555060005b8251811015620001065760016040518060400160405280858481518110620000a757620000a66200039e565b5b60200260200101518152602001600081525090806001815401808255809150506001900390600052602060002090600202016000909190919091506000820151816000015560208201518160010155505080806001019150506200007a565b505050620003cd565b6000604051905090565b600080fd5b600080fd5b600080fd5b6000601f19601f8301169050919050565b7f4e487b7100000000000000000000000000000000000000000000000000000000600052604160045260246000fd5b620001738262000128565b810181811067ffffffffffffffff8211171562000195576200019462000139565b5b80604052505050565b6000620001aa6200010f565b9050620001b8828262000168565b919050565b600067ffffffffffffffff821115620001db57620001da62000139565b5b602082029050602081019050919050565b600080fd5b6000819050919050565b6200020681620001f1565b81146200021257600080fd5b50565b6000815190506200022681620001fb565b92915050565b6000620002436200023d84620001bd565b6200019e565b90508083825260208201905060208402830185811115620002695762000268620001ec565b5b835b8181101562000296578062000281888262000215565b8452602084019350506020810190506200026b565b5050509392505050565b600082601f830112620002b857620002b762000123565b5b8151620002ca8482602086016200022c565b91505092915050565b600073ffffffffffffffffffffffffffffffffffffffff82169050919050565b60006200030082620002d3565b9050919050565b6200031281620002f3565b81146200031e57600080fd5b50565b600081519050620003328162000307565b92915050565b6000806040838503121562000352576200035162000119565b5b600083015167ffffffffffffffff8111156200037357620003726200011e565b5b6200038185828601620002a0565b9250506020620003948582860162000321565b9150509250929050565b7f4e487b7100000000000000000000000000000000000000000000000000000000600052603260045260246000fd5b61090980620003dd6000396000f3fe608060405234801561001057600080fd5b50600436106100935760003560e01c8063609ff1bd11610066578063609ff1bd146101355780639ab24eb014610153578063b384abef14610183578063bb9c09201461019f578063e2ba53f0146101cf57610093565b8063013cf08b146100985780632a8cd29e146100c957806346a38bc8146100e757806355a373d614610117575b600080fd5b6100b260048036038101906100ad919061057f565b6101ed565b6040516100c09291906105d4565b60405180910390f35b6100d1610221565b6040516100de91906105fd565b60405180910390f35b61010160048036038101906100fc9190610676565b610227565b60405161010e91906105fd565b60405180910390f35b61011f61023f565b60405161012c9190610702565b60405180910390f35b61013d610263565b60405161014a91906105fd565b60405180910390f35b61016d60048036038101906101689190610676565b6102e5565b60405161017a91906105fd565b60405180910390f35b61019d6004803603810190610198919061071d565b610389565b005b6101b960048036038101906101b49190610676565b61041f565b6040516101c691906105fd565b60405180910390f35b6101d7610510565b6040516101e4919061075d565b60405180910390f35b600181815481106101fd57600080fd5b90600052602060002090600202016000915090508060000154908060010154905082565b60025481565b60036020528060005260406000206000915090505481565b60008054906101000a900473ffffffffffffffffffffffffffffffffffffffff1681565b6000806000905060005b6001805490508110156102e057816001828154811061028f5761028e610778565b5b90600052602060002090600202016001015411156102d357600181815481106102bb576102ba610778565b5b90600052602060002090600202016001015491508092505b808060010191505061026d565b505090565b60008060009054906101000a900473ffffffffffffffffffffffffffffffffffffffff1673ffffffffffffffffffffffffffffffffffffffff16639ab24eb0836040518263ffffffff1660e01b815260040161034191906107b6565b602060405180830381865afa15801561035e573d6000803e3d6000fd5b505050506040513d601f19601f8201168201806040525081019061038291906107e6565b9050919050565b80600360003373ffffffffffffffffffffffffffffffffffffffff1673ffffffffffffffffffffffffffffffffffffffff16815260200190815260200160002060008282546103d89190610842565b9250508190555080600183815481106103f4576103f3610778565b5b906000526020600020906002020160010160008282546104149190610842565b925050819055505050565b6000600360008373ffffffffffffffffffffffffffffffffffffffff1673ffffffffffffffffffffffffffffffffffffffff1681526020019081526020016000205460008054906101000a900473ffffffffffffffffffffffffffffffffffffffff1673ffffffffffffffffffffffffffffffffffffffff16633a46b1a8846002546040518363ffffffff1660e01b81526004016104be929190610876565b602060405180830381865afa1580156104db573d6000803e3d6000fd5b505050506040513d601f19601f820116820180604052508101906104ff91906107e6565b610509919061089f565b9050919050565b6000600161051c610263565b8154811061052d5761052c610778565b5b906000526020600020906002020160000154905090565b600080fd5b6000819050919050565b61055c81610549565b811461056757600080fd5b50565b60008135905061057981610553565b92915050565b60006020828403121561059557610594610544565b5b60006105a38482850161056a565b91505092915050565b6000819050919050565b6105bf816105ac565b82525050565b6105ce81610549565b82525050565b60006040820190506105e960008301856105b6565b6105f660208301846105c5565b9392505050565b600060208201905061061260008301846105c5565b92915050565b600073ffffffffffffffffffffffffffffffffffffffff82169050919050565b600061064382610618565b9050919050565b61065381610638565b811461065e57600080fd5b50565b6000813590506106708161064a565b92915050565b60006020828403121561068c5761068b610544565b5b600061069a84828501610661565b91505092915050565b6000819050919050565b60006106c86106c36106be84610618565b6106a3565b610618565b9050919050565b60006106da826106ad565b9050919050565b60006106ec826106cf565b9050919050565b6106fc816106e1565b82525050565b600060208201905061071760008301846106f3565b92915050565b6000806040838503121561073457610733610544565b5b60006107428582860161056a565b92505060206107538582860161056a565b9150509250929050565b600060208201905061077260008301846105b6565b92915050565b7f4e487b7100000000000000000000000000000000000000000000000000000000600052603260045260246000fd5b6107b081610638565b82525050565b60006020820190506107cb60008301846107a7565b92915050565b6000815190506107e081610553565b92915050565b6000602082840312156107fc576107fb610544565b5b600061080a848285016107d1565b91505092915050565b7f4e487b7100000000000000000000000000000000000000000000000000000000600052601160045260246000fd5b600061084d82610549565b915061085883610549565b92508282019050808211156108705761086f610813565b5b92915050565b600060408201905061088b60008301856107a7565b61089860208301846105c5565b9392505050565b60006108aa82610549565b91506108b583610549565b92508282039050818111156108cd576108cc610813565b5b9291505056fea26469706673582212207837568ca86c7f9859435caaf7881a4764797a7268e084e633415e8f18d1274664736f6c63430008180033",
  "linkReferences": {},
  "deployedLinkReferences": {}
}